
guff

8=FIX.4.1|9=96|35=0|49=BRKR|56=INVMGR|34=235|52=19980604-07:58:28|112=19980604-07:58:28|10=157|

guff

this is a FIX message: 8=FIX.4.1|9=136|35=6|49=BRKR|56=INVMGR|34=236|52=19980604-07:58:48|23=115685|28=N|55=SPMI.MI|54=2|27=200000|44=10100.000000|25=H|10=159|

here is another one 8=FIX.4.1|9=73|35=0|49=INVMGR|56=BRKR|34=236|52=19980604-07:59:30|10=225|and here is some text at the end

8=FIX.4.1|9=96|35=0|49=BRKR|56=INVMGR|34=237|52=19980604-07:59:48|112=19980604-07:59:48|10=225|
